:100000000C94EB000C94D20A0C94AB0A0C94840A66
:100010000C945D0A0C9413010C9413010C94360A91
:100020000C9413010C94910F0C94F90A0C94680B26
:100030000C9413010C9413010C9413010C941301F0
:100040000C9413010C9413010C9413010C941301E0
:100050000C9413010C9413010C9413010C94EC09EF
:100060000C9413010C9413010C9413010C941301C0
:100070000C9413010C9413010C9413010C941301B0
:100080000C9413010C9413010C9413010C941301A0
:100090000C94DC0F0C9413010C9413010C941301B9
:1000A0000C9413010C949A0D0C941301080B00028C
:1000B0000202000009040000010202000005240001
:1000C0001001052401010104240206052406000193
:1000D0000705810310004009040100020A00000026
:1000E00007050202400000070583024000000403E8
:1000F000090412010002EF020140FB1F002300016E
:1001000001020301506F6C6F6C7520436F72706F4A
:10011000726174696F6E00506F6C6F6C7520412D49
:10012000537461722033325534004661696C6564E2
:1001300020746F20696E697469616C697A65204901
:100140004D552073656E736F72732E00546F74611A
:100150006C20616363656C65726174696F6E2028E1
:100160006D2F735E32293A20000000000025002820
:10017000002B002E003100040404040403040502D3
:100180000202020403020202020606060606060432
:1001900004020202040404080201104080401020FE
:1001A000408040800802040180402010020110803D
:1001B00010204040200000000200090F000003044E
:1001C00001000C0000000000000000000000000022
:1001D00000000000FB1011241FBECFEFDAE0DEBFED
:1001E000CDBF11E0A0E0B1E0EEE0FDE202C005907D
:1001F0000D92A438B107D9F722E0A4E8B1E001C01C
:100200001D92A83EB207E1F710E0CBEED0E004C0AB
:100210002197FE010E946516CA3ED107C9F70E94C8
:100220001C110C9485160C940000FC0180910502B1
:10023000882311F13FB7F89482E08093E900209180
:10024000F200822F90E01816190614F481E090E075
:10025000882339F0289844E6409304024091F10045
:100260004083222339F02091F200211103C02BE6B4
:100270002093E8003FBF08958FEF9FEF08952FB7B9
:10028000F89483E08093E9009091E800892F8072D0
:1002900095FF04C09091F20080E4891B2FBF089560
:1002A0008091FC0181110DC082E08093F80184E00F
:1002B0008093F9011092FB011092FA0181E0809382
:1002C000FC0188EF91E00895282F30E0F901EB540C
:1002D000FE4F9491F901EA56FE4F849129583E4F02
:1002E000F9012491222309F430C09923E9F09150B7
:1002F0009F30D0F4E92FF0E0E058FE4F0C946516E3
:10030000AE01B2018F01A601AA01940194019401EA
:10031000B501BB01BF01C301C9019401CD01909199
:1003200080009F7790938000E22FF0E0EE0FFF1F98
:10033000E759FE4FA591B4919FB7F894EC916111E4
:1003400032C080958E238C939FBF0895909180003A
:100350009F7DE8CF90918000977FE4CF94B59F7701
:1003600094BDE2CF94B59F7DFBCF909190009F7795
:1003700090939000D9CF909190009F7DF9CF90916C
:100380009000977FF5CF9091C0009F779093C00029
:10039000CBCF9091C0009F7DF9CF9091C200977F05
:1003A0009093C200C1CF8E2BCECF3FB7F8948091EF
:1003B000F4019091F501A091F601B091F70126B5F5
:1003C000A89B05C02F3F19F00196A11DB11D3FBF8D
:1003D000BA2FA92F982F8827BC01CD01620F711D5C
:1003E000811D911D42E0660F771F881F991F4A9556
:1003F000D1F708958F929F92AF92BF92CF92DF92E2
:10040000EF92FF924B015C010E94D5016B017C01D0
:100410000E94D5016C197D098E099F09683E7340C1
:1004200081059105A8F321E0821A9108A108B1087D
:1004300088EEC80E83E0D81EE11CF11C81149104E3
:10044000A104B10429F7FF90EF90DF90CF90BF9007
:10045000AF909F908F9008950895089508954091CA
:10046000DD015091DE012091DB013091DC0142176A
:100470005307B4F49091E8009570E1F39091E8008F
:1004800092FD19C08093F1008091DD019091DE0111
:1004900001968F739927892B19F48EEF8093E800CA
:1004A0008091DD019091DE0101969093DE018093B1
:1004B000DD0181E0089580E00895EF92FF920F93AF
:1004C0001F93CF93DF93F82E192FE62E042F81E090
:1004D000860F880F0E942F0283E00E942F02CF2DEB
:1004E000D12FEC0EFD2EF11CCE15DF05B9F007FF64
:1004F00013C0FE0184910E942F02182F80E00E94F9
:100500002F02812321968111EFCFDF91CF911F918F
:100510000F91FF90EF9008958881EDCF81E0F5CFA6
:10052000DF92EF92FF920F931F93CF93DF93D82E1A
:100530008A01EB017B01E40EF51ECE15DF0559F0B3
:10054000D7FE12C0FE0184910E942F0221968111D4
:10055000F4CF0FEF1FEFC801DF91CF911F910F91E3
:10056000FF90EF90DF9008958881EECF0F931F9357
:10057000CF93DF931F92CDB7DEB782E0898342E449
:1005800050E06CEA70E080E80E9490020E94500106
:10059000DC0112960D911C910115110589F0D8010D
:1005A000ED91FC910280F381E02DBE016F5F7F4FE2
:1005B000C801099597FD04C0F80100851185ECCFAD
:1005C00089810F90DF91CF911F910F910895615014
:1005D00030F02091F100FC0120830196F8CF28989B
:1005E00084E68093040208958F929F92AF92BF9207
:1005F000CF92DF92EF92FF920F931F93CF93DF93EF
:100600006C017B018A0180911501882309F45CC08B
:1006100080910502882309F457C08091E10180FF91
:1006200005C08091E00082608093E000E801B12C79
:100630008AEFA82E93E0892E2AE3922E209711F4B8
:10064000BB20D9F10E943F0181110AC0AA94AA20BF
:10065000D9F161E070E080E090E00E94FA01EECF15
:100660008C171D0611F00CF08C2F9FB7F894809218
:10067000E9002091E80025FD02C09FBFDFCF282FB1
:1006800030E0C21BD30BF701815020F04191409321
:10069000F100FACFE20EF31EBB2021F09092E800A9
:1006A000B12CEBCF8091E80085FDE7CF9092E80078
:1006B000BB24B394209709F3F3CF5D9884E680932D
:1006C000E001101611063CF081E090E0F601938302
:1006D000828310E000E0C801DF91CF911F910F915C
:1006E000FF90EF90DF90CF90BF90AF909F908F9052
:1006F0000895CF93DF931F92CDB7DEB76983DC01F6
:10070000ED91FC910280F381E02D41E050E0BE01CB
:100710006F5F7F4F09950F90DF91CF9108950F93F1
:100720001F93CF93DF938C01D0E0C0E0F801EC0F72
:10073000FD1F6491662341F08CE892E00E947903EA
:10074000892B11F02196F2CFCE01DF91CF911F912D
:100750000F91089583E08093E9008091F20088234F
:1007600019F08AE38093E80008950E943F0190E029
:100770000895CF93DF931F92CDB7DEB7FC01848538
:10078000958597FD08C02FEF3FEF358724870F90A1
:10079000DF91CF910895CE0101960E941501019736
:1007A00019F4898190E0F3CF8FEF9FEFF0CF0F9393
:1007B0001F93CF93DF931F92CDB7DEB78C01FC015F
:1007C0008485958597FF0BC0CE0101960E94150187
:1007D000019771F4898190E0F80195878487F80189
:1007E000848595850F90DF91CF911F910F9108958A
:1007F0008FEF9FEFF1CFFC018485958597FD0BC0AE
:100800009FB7F89482E08093E9008091F2009FBF47
:1008100090E0019608959FB7F89482E08093E900F4
:100820008091F2009FBF90E008958091D801E091FF
:10083000D901F091DA01882339F084919FEB980F68
:100840009A3120F4805E08958081F8CF803269F477
:100850002091D9013091DA01A9014F5F5F4F509388
:10086000DA014093D901232B01F708951F93CF9309
:10087000DF930E941504D0E0C0E01AE090ED980FDD
:100880009A30B8F41C9F90011D9F300D1124E9018E
:10089000C80FD11D87FDDA95E0978091D90190911D
:1008A000DA0101969093DA018093D9010E94150430
:1008B000E5CFCE01DF91CF911F9108953F924F92E6
:1008C0005F926F927F928F929F92AF92BF92CF92E0
:1008D000DF92EF92FF920F931F93CF93DF937B01F1
:1008E000D42E2091D50121111BC021E02093D501E8
:1008F000109272001092C00034E03093C10039E0D1
:100900003093C2002093C30023E02093BF0028EE61
:100910002093D1001092BF001092D200579A789481
:1009200010920901CC24C39497FF03C09F77AAE0DB
:10093000CA2EC8E2CC9EC02D1124D0E08C179D0792
:1009400050F021E0EC01C21206C0C13187E2D807A5
:1009500010F0C0E1D7E24E01B12CA12C4C2C512C4F
:10096000712C612C9E01AFEFB7E00E946B16640DF5
:10097000751D861D971D9695879577956795A3019B
:1009800092010E94241660E072E18AE790E0312C27
:100990003394621773078407950728F09695879517
:1009A00077956795F5CFA30192010E94F4159E01FA
:1009B00036952795620F731F811D911DA501940126
:1009C0000E942416722E022F132F2AE0C21207C093
:1009D000CE0105966AE070E00E941016EB01C83E59
:1009E00083E0D80759F09701DE010E946B1628EECC
:1009F00033E040E050E00E94461679011092720008
:100A00008091C100807F83298093C1001093BF0033
:100A10007092D1004D2D403108F04FE080E190E020
:100A2000841B910902C0169507958A95E2F71093E9
:100A3000BF000093D200F092D701E092D60189B3B3
:100A40008FEF89BB84E080937200DF91CF911F917B
:100A50000F91FF90EF90DF90CF90BF90AF909F905D
:100A60008F907F906F905F904F903F90089520916E
:100A7000AA01260F3327331F21323105ECF42091D0
:100A80006202FC0190E080E0243069F082E0089589
:100A9000A091AA012191AC0146575E4FA40FB52F3A
:100AA000B11D2C930196861798F38091AA01680FC7
:100AB0006093AA0180E0089581E008951092620297
:100AC00081E08093610210923C0261E082E00E942A
:100AD000640161E083E00E946401E9EBF0E0808161
:100AE0008E7F808380818D7F808388E48093B800AF
:100AF00085E48093BC000895CF93DF9391E09093B9
:100B000089018823B9F0C091B800D091BA008091D2
:100B1000BC008A7B8093BC0060E082E00E9464019C
:100B200060E083E00E9464010E945E05D093BA00F9
:100B3000C093B800DF91CF9108958F929F92AF92AA
:100B4000BF92CF92DF92EF92FF920F931F93CF93BA
:100B5000DF93D0918B02D13208F0D7C0182FC0910B
:100B60008A020E94D5016B017C0180916202811191
:100B70006BC082E080936202109361028FEF8093DA
:100B8000600210925F02D0935E02AAE6B2E0EEE34A
:100B9000F2E080E0D81391C010923D0280913D02B6
:100BA000CC0FC82BC0933D0280913C02813009F0EC
:100BB00088C010923C020E94D5016B017C0180919B
:100BC0003D028093BB008091640290916502A091E8
:100BD0006602B0916702892B8A2B8B2BA1F00E94B1
:100BE000D501009164021091650220916602309156
:100BF00067026C197D098E099F09061717072807D8
:100C0000390708F442C08091BC0083FDD8CF85EC41
:100C10008093BC000E94D5016B017C01809162022F
:100C2000823009F450C0809160028F3F09F46FC098
:100C300080916002803209F46CC080916002803340
:100C400009F469C084E026C0809164029091650235
:100C5000A0916602B0916702892B8A2B8B2B09F435
:100C600084CF0E94D5018090640290906502A0908C
:100C70006602B09067026C197D098E099F0986167D
:100C80009706A806B90608F070CF809163020E940B
:100C90007C0585E01092690210928B021092680226
:100CA000DF91CF911F910F91FF90EF90DF90CF9048
:100CB000BF90AF909F908F9008959D9191938F5F7B
:100CC00069CF85EEA5CF8091640290916502A091D5
:100CD0006602B0916702892B8A2B8B2B09F49ECF79
:100CE0000E94D50100916402109165022091660274
:100CF000309167026C197D098E099F090617170745
:100D00002807390708F08ACFC0CF81E0C3CF80E041
:100D1000C1CF82E0BFCF83E0BDCFCF92DF92EF9211
:100D2000FF920F931F93CF93DF93D82FC62F61327B
:100D300008F098C00E94D5016B017C01809162028D
:100D400081116BC081E080936202809361029FEF0A
:100D50009093600210925F029C0F90935E028093CA
:100D60003D0280913D02DD0FD82BD0933D02809152
:100D70003C02813009F078C010923C020E94D501FB
:100D80006B017C0180913D028093BB0080916402E5
:100D900090916502A0916602B0916702892B8A2B1F
:100DA0008B2BA1F00E94D501009164021091650285
:100DB00020916602309167026C197D098E099F09A6
:100DC000061717072807390708F448C08091BC00A8
:100DD00083FDD8CF85EC8093BC000E94D5016B01C8
:100DE0007C0180916202813009F440C080915F02F1
:100DF0008C1710F4C0915F02EEE3F2E0A8E0B2E0DD
:100E000080E08C1355C08C2FDF91CF911F910F91F3
:100E1000FF90EF90DF90CF900895809164029091C1
:100E20006502A0916602B0916702892B8A2B8B2BF9
:100E300009F484CF0E94D5010091640210916502EB
:100E400020916602309167026C197D098E099F0915
:100E5000061717072807390708F070CF809163023B
:100E60000E947C05C0E0CFCF85EEB5CF80916402B3
:100E700090916502A0916602B0916702892B8A2B3E
:100E80008B2B09F4AECF0E94D50100916402109122
:100E9000650220916602309167026C197D098E0906
:100EA0009F09061717072807390708F09ACFD6CFEA
:100EB00091919D938F5FA5CF0895E0910702809156
:100EC0000602E81730F4F0E0E85FFD4F808190E023
:100ED00008958FEF9FEF0895909107028091060289
:100EE0002FEF3FEF981748F4E92FF0E0E85FFD4F50
:100EF000208130E09F5F90930702C901089580919F
:100F0000060290910702891B990B0895CF92DF92F8
:100F1000EF92FF920F931F93CF93DF937C01CB014E
:100F20008A0120916802222389F0EB016B01C40E33
:100F3000D51ECC15DD0569F06991D701ED91FC91C5
:100F40000190F081E02DC7010995F3CF642F0E9435
:100F50003705C801DF91CF911F910F91FF90EF905E
:100F6000DF90CF900895CF93DF931F92CDB7DEB778
:100F70006983209168022223F9F020918B022032AC
:100F800058F021E030E0FC013383228390E080E0E0
:100F90000F90DF91CF91089580916902E82FF0E0E2
:100FA000E659FD4F998190838F5F8093690280930A
:100FB0008B0281E090E0ECCF61E0CE0101960E94CF
:100FC0003705F7CFCF93C42F91E0909368028093B9
:100FD0008A021092690210928B028CED92E00E94BC
:100FE000B3076C2F8CED92E00E94B30781E00E9462
:100FF0009D0580933A02CF91089590E080E0089596
:10100000FC0101900020E9F73197AF01481B590B13
:10101000BC018CE892E00C94F4028F929F92AF9204
:10102000BF920F931F93CF93DF93CDB7DEB7A197F6
:101030000FB6F894DEBF0FBECDBF19A2423008F440
:101040004AE08E010F5D1F4F842E912CB12CA12CF4
:10105000A50194010E942416E62FB901CA01EA30C5
:10106000F4F4E05DD801EE938D01232B242B252B86
:1010700079F790E080E0109719F0CD010E94000808
:10108000A1960FB6F894DEBF0FBECDBFDF91CF9112
:101090001F910F91BF90AF909F908F900895E95C42
:1010A000E1CFDF92EF92FF920F931F93CF93DF93E5
:1010B000182FEA0181E08093680210938A0210924F
:1010C000690210928B028CED92E00E94B30781E0DE
:1010D0000E949D0580933A0281110DC066E0812F28
:1010E0000E948D061092070280930602863059F006
:1010F00082E380933A02DF91CF911F910F91FF908D
:10110000EF90DF9008958CED92E00E946C07E82E3E
:101110008CED92E00E946C07D82E8CED92E00E943C
:101120006C07082F8CED92E00E946C07F82E8CED76
:1011300092E00E946C07182F8CED92E00E946C07E1
:1011400020E03D2D2E293983288320E03F2D202BC0
:101150003B832A8320E0382F212B3D832C83CBCF68
:10116000CF93C82F81E080936802C0938A021092C7
:10117000690210928B026FE08CED92E00E94B3073F
:1011800081E00E949D0581110FC061E08C2F0E94BB
:101190008D061092070280930602813029F48CEDAF
:1011A00092E0CF910C946C078FEF9FEFCF91089551
:1011B0004F925F926F927F928F929F92AF92BF9267
:1011C000CF92DF92EF92FF920F931F93CF936B0119
:1011D0007C01742EAC019B010E94DA15882399F0E2
:1011E00083E691E0CF911F910F91FF90EF90DF90F8
:1011F000CF90BF90AF909F908F907F906F905F90B7
:101200004F900C94000846015701E894B7F82FEF6F
:101210003FEF4FE75FE7C501B4010E94DA15811186
:101220000DC02FEF3FEF4FE75FE7C501B4010E940C
:10123000CA1318161CF487E691E0D4CF2FEF3FEFC6
:101240004FE75FE4C701B6010E94221518161CF48F
:101250008BE691E0C7CF2FEF3FEF4FE75FECC70181
:10126000B6010E94CA1387FDF3CF20E030E0A90148
:10127000C701B6010E94CA1310E000E087FF0AC050
:101280006DE28CE892E00E9479038C01F7FAF09409
:10129000F7F8F094C0E060E070E080E09FE37C1637
:1012A00041F020E030E040E251E40E94CF13CF5FF4
:1012B000F6CFA70196010E945E132B013C010E940C
:1012C00041144B015C014AE00E940D087C01E00ED4
:1012D000F11ECC23C1F1C501B4010E9470149B0121
:1012E000AC01C301B2010E945D134B015C016EE2CF
:1012F0008CE892E00E947903E80EF91EC15018F1C3
:1013000020E030E040E251E4C501B4010E9427151D
:101310002B013C010E9441144B01B12CA12C4AE04D
:10132000C501B4010E940D08E80EF91EC501B40103
:101330000E9470149B01AC01C301B2010E945D13B5
:101340004B015C01DBCFC701CF911F910F91FF9043
:10135000EF90DF90CF90BF90AF909F908F907F9055
:101360006F905F904F90089585ED8093BC008091C1
:10137000640290916502A0916602B091670207969F
:10138000A11DB11D23E0B695A795979587952A9540
:10139000D1F72091BC0024FD03C010926202089591
:1013A00040916402509165026091660270916702FB
:1013B000452B462B472B69F30097A105B10541F05A
:1013C0002AE22A95F1F700C00197A109B109E1CFFE
:1013D000809163020C947C051F920F920FB60F92BE
:1013E00011242F933F938F939F93AF93BF9380913B
:1013F000F0019091F101A091F201B091F3013091CF
:10140000EF0123E0230F2D3758F50196A11DB11DE3
:101410002093EF018093F0019093F101A093F201EA
:10142000B093F3018091F4019091F501A091F60140
:10143000B091F7010196A11DB11D8093F401909325
:10144000F501A093F601B093F701BF91AF919F9181
:101450008F913F912F910F900FBE0F901F90189575
:1014600026E8230F0296A11DB11DD2CF1F920F9225
:101470000FB60F9211242F933F934F935F936F9367
:101480007F938F939F93AF93BF93EF93FF93E091DD
:101490001E01F0911F010995FF91EF91BF91AF914E
:1014A0009F918F917F916F915F914F913F912F917C
:1014B0000F900FBE0F901F9018951F920F920FB6AE
:1014C0000F9211242F933F934F935F936F937F93CA
:1014D0008F939F93AF93BF93EF93FF93E0911C0182
:1014E000F0911D010995FF91EF91BF91AF919F91EF
:1014F0008F917F916F915F914F913F912F910F90BD
:101500000FBE0F901F9018951F920F920FB60F925B
:1015100011242F933F934F935F936F937F938F93F8
:101520009F93AF93BF93EF93FF93E0911A01F091D4
:101530001B010995FF91EF91BF91AF919F918F9101
:101540007F916F915F914F913F912F910F900FBEBF
:101550000F901F9018951F920F920FB60F921124A3
:101560002F933F934F935F936F937F938F939F93AB
:10157000AF93BF93EF93FF93E0911801F09119019E
:101580000995FF91EF91BF91AF919F918F917F91BD
:101590006F915F914F913F912F910F900FBE0F90E0
:1015A0001F9018951F920F920FB60F9211242F9330
:1015B0003F934F935F936F937F938F939F93AF93DB
:1015C000BF93EF93FF93E0911601F09117010995F6
:1015D000FF91EF91BF91AF919F918F917F916F910B
:1015E0005F914F913F912F910F900FBE0F901F90E1
:1015F00018951F920F920FB60F9211248F939F93FD
:101600008091E1009091E100937F9093E10083FF4E
:101610000FC01092E90091E09093EB001092EC0063
:1016200092E39093ED001092050298E09093F00001
:1016300082FF22C093E09093E9009091F2009923F9
:1016400019F09AE39093E8009091E001992341F01A
:101650009091E00191509093E001911101C05D9A49
:1016600090910402992341F090910402915090933B
:101670000402911101C0289A84FF18C08091E200F1
:101680008E7E81608093E2008091E1008F7E809366
:10169000E1008091E1018E7E80618093E1019F9164
:1016A0008F910F900FBE0F901F90189580FFF7CF6E
:1016B0008091E2008E7E80618093E2008091E10063
:1016C0008E7E8093E1008091E1018E7E8160E5CF86
:1016D0001F920F920FB60F921124CF92DF92EF92CA
:1016E000FF920F931F932F933F934F935F936F93AB
:1016F0007F938F939F93AF93BF93EF93FF93CF937A
:10170000DF93CDB7DEB76C97DEBFCDBF1092E90097
:101710008091E80083FF25C068E0CE0145960E94D5
:10172000E70282EF8093E8008D8987FF39C09091AE
:10173000E80090FFFCCF982F907609F034C19E8985
:101740004F89588D2F89F88C911131C0803861F5FF
:101750008091E2018093F1001092F1008EEF80936E
:10176000E8006C960FB6F894DEBF0FBECDBFDF91D8
:10177000CF91FF91EF91BF91AF919F918F917F9109
:101780006F915F914F913F912F911F910F91FF901A
:10179000EF90DF90CF900F900FBE0F901F90189595
:1017A0009EEF9093E800C7CF1092F100D5CF913013
:1017B00059F48111D3CF4130510581F68091E20176
:1017C0008D7F8093E201CACF933049F48111C6CF57
:1017D0004130510519F68091E2018260F2CF9530D7
:1017E00041F48091E80080FFFCCF20682093E30063
:1017F000B5CF963009F0A9C00B8D1C8D22E0109258
:10180000E9001092DE011092DD01F2122EC010925A
:10181000DC011092DB010E94B6021F8299E09983DD
:10182000FA8291E09E8390EA98879AEF99872091B7
:10183000DD013091DE01275F3F4F3C832B838D8399
:101840001092E9001092DE011092DD011093DC018C
:101850000093DB0149E050E0BE016F5F7F4F80E005
:101860000E9490020E94B60279CF1093DC0100938F
:10187000DB010E945001DC0112960D911C910115B3
:10188000110509F451C1D801ED91FC910480F58155
:10189000E02DBE016B5E7F4FC8010995009709F0EE
:1018A0003EC1F80100851185EACFF3E0FF120EC0BA
:1018B0008F89882309F440C0823061F440E862E1F6
:1018C00087E191E00E945D02811148CF81E280931F
:1018D000EB0047CF813029F440E862E184E091E0F9
:1018E000F1CF833099F70E945001DC011296ED9000
:1018F000FC908E010F5F1F4F6801E114F10479F035
:10190000D701ED91FC910680F781E02DB801C70168
:101910000995080F111DF701E084F184EECFD8017D
:101920001C92F60101900020E9F73197BF016C1974
:101930007D0940E0C601C6CF6EEE70E0FB01449128
:1019400050E080E80E94900209CF973009F4BECFA2
:10195000983021F481E08093F10000CF993009F0B4
:10196000FDCE837009F0B2CFE9E3F1E081E031E030
:1019700096E32191222371F08093E9003093EB00EC
:10198000DF0111972C912093EC009093ED008F5F75
:10199000873079F78EE78093EA001092EA008F890A
:1019A00080930502DBCE8B8D9C8D1092E900109206
:1019B000DE011092DD019093DC018093DB01898DC3
:1019C000811192C08E899D89913A49F4813209F042
:1019D0007DCF47E050E06EE071E080E0B3CF913220
:1019E00009F074CF833269F48F89988DB0E0A0E05C
:1019F00080930A0190930B01A0930C01B0930D0109
:101A0000ADCE803269F48091E80082FFFCCF67E0C0
:101A10008EE091E00E94E7028BEF8093E8009ECE7B
:101A2000823209F09BCE8F8980931501EEEFFFE79C
:101A3000859194918B3F9C4D51F1E0E0F8E08091CD
:101A40000E0190910F01A0911001B0911101803B06
:101A50009440A105B105F1F48091150180FD1AC0F3
:101A6000EE3F8AE0F80789F587E797E7918380835F
:101A7000809160008093DF0188E19BE00FB6F894CD
:101A8000A895809360000FBE9093600067CEEEEF44
:101A9000FAE0D5CF808191818737974709F05ECEF4
:101AA000A895809160008861809360008091DF013B
:101AB00080936000EE3F2AE0F20789F08091FE0AF1
:101AC0009091FF0A9183808349CE808191818737ED
:101AD000980751F29093FF0A8093FE0AC5CF1092A7
:101AE000FF0A1092FE0A3ACE0E945001DC011296C3
:101AF0000D911C910115110509F4E8CED801ED9165
:101B0000FC910190F081E02DBE016B5E7F4FC8011A
:101B10000995811123CEF80100851185EBCF1816A8
:101B200019060CF41BCED2CEF1E0FF12BECE62EF4E
:101B300070E004CF1F920F920FB60F9211244F92B4
:101B40005F926F927F928F929F92AF92BF92CF924D
:101B5000DF92EF92FF920F931F932F933F934F9338
:101B60005F936F937F938F939F93AF93BF93CF9325
:101B7000DF93EF93FF93C091D601D091D701CE01AF
:101B800001979093D7018093D6012097A1F51092E9
:101B9000720078948091C100807F84608093C1003E
:101BA00083E08093BF0088EE8093D1001092BF0045
:101BB0001092D20081E0809309018091D901909127
:101BC000DA01892BC1F08091D401811114C0709089
:101BD00008018091D301882379F18091D201882373
:101BE00059F16091D20170E040E088EE93E00E94EC
:101BF0005E041092D201FF91EF91DF91CF91BF91DE
:101C0000AF919F918F917F916F915F914F913F9194
:101C10002F911F910F91FF90EF90DF90CF90BF9089
:101C2000AF909F908F907F906F905F904F900F90AC
:101C30000FBE0F901F9018955524539470ECA72E4B
:101C40007DE5B72EEAE04E2EF4E06F2EA0EDCA2E11
:101C5000A7E0DA2EB4E0EB2EF12C04EF11E08FE0D8
:101C6000882E912C0E9415042091D9013091DA011F
:101C70002F5F3F4F3093DA012093D901853609F465
:101C800073C00CF047C0813609F4B4C024F58C331E
:101C900009F468C08E3309F463C0813209F043C08F
:101CA00060920801D0920501C0920401F0920701F0
:101CB000E09206011093030100930201909201014A
:101CC000809200011092D30170900801809102016E
:101CD00090910301C7CF833609F48FC010E00BE069
:101CE000843614F010E002E04CE0749E000D1124E4
:101CF0000E941504982F977F933209F080C080913D
:101D0000D9019091DA0101969093DA018093D9017B
:101D10000F5FEECF8D3609F445C054F4873651F18C
:101D200034F18C3651F11092DA011092D90163CF5F
:101D3000823709F44CC044F48F36A9F70E94360468
:101D4000782E809308018ECF843709F443C08637FC
:101D500051F70E943604909301018093000182CFD5
:101D6000739480CF7A947ECF10E004E0BDCF10E072
:101D700005E0BACF10E007E0B7CF0E943604909399
:101D80000701809306018091040190910501609103
:101D90000601709107010E94101670930301609371
:101DA000020160CF0E9415048C3661F41092D301B9
:101DB0008091D9019091DA0101969093DA01809394
:101DC000D90150CF5092D3011092D201F1CF11E03E
:101DD00000E08ACF0E943604BC01C5010E941016A3
:101DE000469EC001479E900D11249093050180935B
:101DF0000401C9CF10E009E077CF10E0E9CF8D32C0
:101E000069F48091D9019091DA0101969093DA01F9
:101E10008093D90101500E941504F1CFE090020196
:101E2000F09003018153883058F4E0900401F09061
:101E300005010E943604BC01C7010E9410167B01F7
:101E40006701D694C7940E9415048E3261F4809184
:101E5000D9019091DA0101969093DA018093D9012A
:101E6000EC0CFD1CEECF8091D301882349F0C70113
:101E7000969587958093D2018091D201E81AF10856
:101E8000C0900001D0900101111104C00F3F11F06A
:101E9000C11007C040E0B70188EE93E00E945E04E5
:101EA000AACE013128F010EF100F103608F01FE510
:101EB000812F6CE00E940416582F44EF45039001D7
:101EC0001124210F311D2C30310538F4220F331F1E
:101ED000F901E05EFE4FC081D1818730C1F0082E4C
:101EE00002C0CC0FDD1F0A94E2F7823040F0CE0131
:101EF00005966AE070E00E941016CB0102C0CE0188
:101F000090584C2D403108F04FE0B701C7CFCE01BB
:101F100026E0880F991F2A95E1F7029665E070E0A8
:101F2000EACF1F920F920FB60F9211242F933F9377
:101F30004F936F937F938F939F938CB1282F30E0B3
:101F40003595279535952795422F417083B190E0BF
:101F500064E0959587956A95E1F7822781702091D5
:101F6000D1019091D0016091CE017091CF012827CD
:101F70009427291B330B260F371F3093CF01209353
:101F8000CE012091D0019091D101281729F094170A
:101F900019F091E09093CD018093D0014093D1014D
:101FA0009F918F917F916F914F913F912F910F90C2
:101FB0000FBE0F901F9018951F920F920FB60F92A1
:101FC00011242F933F934F935F936F937F938F933E
:101FD0009F93AF93BF93EF93FF938091B900887F56
:101FE000803609F44AC0F0F5883209F4A7C018F524
:101FF000803109F49BC0B8F4882309F4F9C0883013
:1020000009F494C0FF91EF91BF91AF919F918F918F
:102010007F916F915F914F913F912F910F900FBEE4
:102020000F901F901895883109F488C0803251F7BD
:102030008093600214C0803409F49DC040F4803362
:10204000B9F38833F9F68093600285ECB0C080352F
:1020500009F485C0883509F496C0883499F60E9441
:10206000B409D0CF883909F48CC038F5883729F005
:1020700050F4883611F0803729F683E080936202AD
:102080001092CC0157C0883809F47BC0803919F010
:10209000803809F0B7CF8091CC01803208F071C050
:1020A000E091CC0181E08E0F8093CC018091BB0048
:1020B000F0E0E455FE4F80833DC0803B39F0E0F412
:1020C000803A09F479C0883A09F09CCF84E0809383
:1020D00062021092AB011092AA01E091E501F09129
:1020E000E60109958091AA0181110FC081E08093DA
:1020F000AA0110928A0109C0803C09F4A6CF883C4D
:1021000009F4A3CF883B09F07DCFE091AB0181E0DA
:102110008E0F8093AB01F0E0E657FE4F80818093F5
:10212000BB009091AB018091AA0129C080913D0232
:102130008093BB0085EC8093BC0064CF90915F02DC
:1021400080915E02981758F5E0915F0281E08E0F52
:1021500080935F02F0E0E25CFD4F8081E9CFE09187
:102160005F0281E08E0F80935F028091BB00F0E000
:10217000E25CFD4F808390915F0280915E02981730
:10218000C8F285E8D8CFE0915F0281E08E0F80939E
:102190005F028091BB00F0E0E25CFD4F80838091A4
:1021A000610281115CCF81E080933C0284EA8093DC
:1021B000BC001092620226CF85EC8093BC00109286
:1021C00062028091CC01803230F4E091CC01F0E0E9
:1021D000E455FE4F10826091CC0170E0E091E30184
:1021E000F091E4018CEA91E009951092CC010ACFBC
:1021F0001092600234CFECE8F2E01382128288EE93
:1022000093E0A0E0B0E084839583A683B78323E4C2
:1022100031E0318320832FEF3FEF35872487ECEDCA
:10222000F2E01382128284839583A683B78385E5C7
:1022300091E0918380830895789484B5826084BD11
:1022400084B5816084BD85B5826085BD85B58160BA
:1022500085BD80916E00816080936E001092810038
:1022600080918100826080938100809181008160F3
:1022700080938100809180008160809380008091B4
:1022800091008260809391008091910081608093A1
:102290009100809190008160809390008091C100B6
:1022A00084608093C1008091C10082608093C100EE
:1022B0008091C10081608093C1008091C3008160E2
:1022C0008093C3008091C00082608093C0008091A1
:1022D000C20081608093C20080917A008460809304
:1022E0007A0080917A00826080937A0080917A00EF
:1022F000816080937A0080917A00806880937A0070
:10230000109205021092E2011092E1018091D70033
:1023100081608093D70080EA8093D80089B580617E
:1023200089BD89B5826089BD09B400FEFDCF61E039
:1023300070E080E090E00E94FA018091D8008F7CEC
:1023400080618093D8008091E000807F8093E000DE
:102350008091E1008E7E8093E1008DE08093E20029
:10236000559A209A10920702109206021092690262
:1023700010928B020E945E058CE292E09093E6013F
:102380008093E5018DE292E09093E4018093E30174
:102390008FEF9FEF90939902809398028DE10E94B6
:1023A000B0088934910509F0D1C08BE60E94B008CD
:1023B000873D910509F0CAC081E080933B0280917E
:1023C0003B02813009F4E0C0823009F419C1C0E059
:1023D000D0E080913B02813009F44CC1823009F495
:1023E00050C180913A02811114C080913B0281302A
:1023F00009F44CC1823009F450C180913A02811134
:1024000008C080913B02813009F44BC1823009F44D
:102410004FC16091280270912902072E000C880B91
:10242000990B0E94721423E23BED49E75DE30E94A1
:10243000271520E030E04AE754E40E94CF134B0117
:102440005C018092E7019092E801A092E901B092CC
:10245000EA0160912A0270912B02072E000C880B72
:10246000990B0E94721423E23BED49E75DE30E9461
:10247000271520E030E04AE754E40E94CF136B01B7
:102480007C01C092EB01D092EC01E092ED01F09260
:10249000EE01A5019401C501B4010E9427154B016D
:1024A0005C01A7019601C701B6010E9427159B0197
:1024B000AC01C501B4010E945E130E949A156B0124
:1024C0007C0182E791E00E9400086091E701709131
:1024D000E8018091E9019091EA0144E00E94D80866
:1024E00087E791E00E9400086091EB017091EC0198
:1024F0008091ED019091EE0144E00E94D80880E8BF
:1025000091E00E9400088FE691E00E9400088CE4B0
:1025100091E00E948F032CE53FE84EE051E4C701B3
:10252000B6010E94271542E00E94D8088FE691E08C
:102530000E94000868EE73E080E090E00E94FA01DB
:10254000209709F446CF0E94000043CF8BE60E94FB
:10255000B0088936910539F48EE10E94B008CD9714
:1025600011F482E02ACF2898209A8AE291E00E9412
:102570008F038FE691E00E94000864E670E080E03F
:1025800090E00E94FA01F1CF47E560E28DE10E9400
:10259000E20780913A0281111ACF40E061E28DE1B9
:1025A0000E94E20780913A02811111CF44E664E271
:1025B0008DE10E94E20780913A02811108CF40E24A
:1025C00065E28DE10E94E20780913A028111FFCE1F
:1025D00040E066E28DE10E94E20780913A028111BB
:1025E000F6CE4FE760E28BE60E94E20780913A0266
:1025F0008111EDCE40E063E28BE60E94E207E7CE78
:1026000040E360E18BE60E94E20780913A0281118B
:10261000DECE40E561E18BE60E94E20780913A025E
:102620008111D5CE44E062E18BE60E94E207809101
:102630003A028111CCCE40E760E28EE10E94E207CF
:1026400080913A028111C3CE40E061E28EE10E94A6
:10265000E20780913A028111BACE40E062E28EE157
:102660000E94E20780913A028111B1CE4CE063E210
:102670008EE1C3CF48E252E068EA8DE10E94510842
:10268000B0CE48E252E068E28BE6F8CF4EE252E08C
:1026900068EA8BE60E945108B0CE4EE252E062E258
:1026A000F8CF44E352E068E88DE10E945108B1CED2
:1026B00044E352E068EA8EE1F8CF5058BB27AA27DE
:1026C0000E9475130C94E8140E94DA1438F00E94EA
:1026D000E11420F039F49F3F19F426F40C94D71438
:1026E0000EF4E095E7FB0C94D114E92F0E94F91445
:1026F00058F3BA17620773078407950720F079F437
:10270000A6F50C941B150EF4E0950B2EBA2FA02DF8
:102710000B01B90190010C01CA01A0011124FF278E
:10272000591B99F0593F50F4503E68F11A16F04089
:10273000A22F232F342F4427585FF3CF4695379588
:102740002795A795F0405395C9F77EF41F16BA0B4D
:10275000620B730B840BBAF09150A1F0FF0FBB1FFB
:10276000661F771F881FC2F70EC0BA0F621F731F44
:10277000841F48F4879577956795B795F7959E3FA1
:1027800008F0B0CF9395880F08F09927EE0F979532
:10279000879508950E94AD1408F481E008950E9481
:1027A000E3130C94E8140E94E11458F00E94DA1428
:1027B00040F029F45F3F29F00C94D11451110C948E
:1027C0001C150C94D7140E94F91468F39923B1F3E3
:1027D000552391F3951B550BBB27AA276217730747
:1027E000840738F09F5F5F4F220F331F441FAA1FDB
:1027F000A9F335D00E2E3AF0E0E832D09150504097
:10280000E695001CCAF72BD0FE2F29D0660F771F44
:10281000881FBB1F261737074807AB07B0E809F02A
:10282000BB0B802DBF01FF2793585F4F3AF09E3FAF
:10283000510578F00C94D1140C941C155F3FE4F30F
:10284000983ED4F3869577956795B795F7959F5FF2
:10285000C9F7880F911D9695879597F90895E1E03E
:10286000660F771F881FBB1F621773078407BA079D
:1028700020F0621B730B840BBA0BEE1F88F7E095F8
:1028800008950E94011588F09F5798F0B92F992755
:10289000B751B0F0E1F0660F771F881F991F1AF04B
:1028A000BA95C9F714C0B13091F00E941B15B1E080
:1028B00008950C941B15672F782F8827B85F39F07F
:1028C000B93FCCF3869577956795B395D9F73EF4E4
:1028D00090958095709561957F4F8F4F9F4F08958C
:1028E000E89409C097FB3EF49095809570956195AA
:1028F0007F4F8F4F9F4F9923A9F0F92F96E9BB2760
:102900009395F695879577956795B795F111F8CFDB
:10291000FAF4BB0F11F460FF1BC06F5F7F4F8F4F46
:102920009F4F16C0882311F096E911C0772321F03C
:102930009EE8872F762F05C0662371F096E8862FD4
:1029400070E060E02AF09A95660F771F881FDAF72B
:10295000880F9695879597F90895990F0008550F58
:10296000AA0BE0E8FEEF16161706E807F907C0F015
:1029700012161306E407F50798F0621B730B840B1D
:10298000950B39F40A2661F0232B242B252B21F4F7
:1029900008950A2609F4A140A6958FEF811D811D97
:1029A000089597F99F6780E870E060E008959FEFD1
:1029B00080EC089500240A941616170618060906D6
:1029C000089500240A9412161306140605060895A5
:1029D000092E0394000C11F4882352F0BB0F40F42D
:1029E000BF2B11F460FF04C06F5F7F4F8F4F9F4F6D
:1029F000089557FD9058440F551F59F05F3F71F0EF
:102A00004795880F97FB991F61F09F3F79F0879555
:102A10000895121613061406551FF2CF4695F1DFDE
:102A200008C0161617061806991FF1CF869571056E
:102A3000610508940895E894BB2766277727CB01A2
:102A400097F908950E94AD1408F48FEF08950E943D
:102A50003A150C94E8140E94DA1438F00E94E1143C
:102A600020F0952311F00C94D1140C94D714112458
:102A70000C941C150E94F91470F3959FC1F3950FE7
:102A800050E0551F629FF001729FBB27F00DB11DF2
:102A9000639FAA27F00DB11DAA1F649F6627B00D82
:102AA000A11D661F829F2227B00DA11D621F739F6B
:102AB000B00DA11D621F839FA00D611D221F749F79
:102AC0003327A00D611D231F849F600D211D822FC0
:102AD000762F6A2F11249F5750409AF0F1F08823E7
:102AE0004AF0EE0FFF1FBB1F661F771F881F915014
:102AF0005040A9F79E3F510580F00C94D1140C94DE
:102B00001C155F3FE4F3983ED4F38695779567955F
:102B1000B795F795E7959F5FC1F7FE2B880F911D3D
:102B20009695879597F9089519F416F40C94D7148F
:102B30000C94DF150E940115B8F39923C9F3B6F37D
:102B40009F57550B87FF0E94ED150024A0E640EA31
:102B5000900180585695979528F4805C660F771FF2
:102B6000881F20F026173707480730F4621B730BC5
:102B7000840B202931294A2BA695179407942025E8
:102B800031254A2758F7660F771F881F20F0261730
:102B90003707480730F4620B730B840B200D311D8F
:102BA000411DA09581F7B901842F9158880F969502
:102BB000879508950E94AD14880B990B08959F3F47
:102BC00031F0915020F4879577956795B795880FE8
:102BD000911D9695879597F9089591505040660FED
:102BE000771F881FD2F70895DB018F939F930E9470
:102BF0007A16BF91AF91A29F800D911DA39F900D5A
:102C0000B29F900D11240895991B79E004C0991F7B
:102C1000961708F0961B881F7A95C9F78095089536
:102C2000AA1BBB1B51E107C0AA1FBB1FA617B707F2
:102C300010F0A61BB70B881F991F5A95A9F780950E
:102C40009095BC01CD010895A1E21A2EAA1BBB1BD1
:102C5000FD010DC0AA1FBB1FEE1FFF1FA217B30768
:102C6000E407F50720F0A21BB30BE40BF50B661F7E
:102C7000771F881F991F1A9469F760957095809542
:102C800090959B01AC01BD01CF010895052E97FBE6
:102C90001EF400940E945D1657FD07D00E94241672
:102CA00007FC03D04EF40C945D165095409530957A
:102CB00021953F4F4F4F5F4F0895909580957095A8
:102CC00061957F4F8F4F9F4F0895EE0FFF1F059027
:102CD000F491E02D0994A29FB001B39FC001A39F7E
:102CE000700D811D1124911DB29F700D811D112445
:102CF000911D08950E946B16A59F900DB49F900D95
:0E2D0000A49F800D911D11240895F894FFCF1B
:102D0E000F00F401D00704000401FFFFFFFF00E1F4
:102D1E000000000000002E022E022E022E022E02B5
:102D2E009C01B501CF01EA010702260247026902A2
:102D3E008E02B502DE020A0300C18081000000008F
:102D4E000000007903F402B503AA03FB03B903D70D
:102D5E000300000000B3078607FD075C077F076CC2
:102D6E00075D076E616E00696E66006F7666000D18
:102D7E000A0061783A200020672C2061793A200001
:042D8E0067200000BA
:00000001FF
