:100000000C94DD000C94A90A0C94820A0C945B0AEF
:100010000C94340A0C9405010C9405010C940D0AFF
:100020000C9405010C94680F0C94D00A0C943F0BAF
:100030000C9405010C9405010C9405010C94050128
:100040000C9405010C9405010C9405010C94050118
:100050000C9405010C9405010C9405010C94C30942
:100060000C9405010C9405010C9405010C940501F8
:100070000C9405010C9405010C9405010C940501E8
:100080000C9405010C9405010C9405010C940501D8
:100090000C94B30F0C9405010C9405010C9405010C
:1000A0000C9405010C94710D0C940501080B0002D1
:1000B0000202000009040000010202000005240001
:1000C0001001052401010104240206052406000193
:1000D0000705810310004009040100020A00000026
:1000E00007050202400000070583024000000403E8
:1000F000090412010002EF020140FB1F002300016E
:1001000001020301506F6C6F6C7520436F72706F4A
:10011000726174696F6E00506F6C6F6C7520412D49
:10012000537461722033325534004661696C6564E2
:1001300020746F20696E697469616C697A65204901
:100140004D552073656E736F72732E0000000000B2
:10015000250028002B002E003100040404040403B1
:100160000405020202020403020202020606060657
:10017000060604040202020404040802011040807E
:10018000401020408040800802040180402010027E
:1001900001108010204040200000000200090F00E4
:1001A00000030401000C000000000000000000003B
:1001B0000000000000000000D21011241FBECFEF8D
:1001C000DAE0DEBFCDBF12E0A0E0B1E0EEE4FDE298
:1001D00002C005900D92AC30B107D9F723E0ACE036
:1001E000B2E001C01D92A437B207E1F710E0CDEDF7
:1001F000D0E004C02197FE010E948516CC3DD107B6
:10020000C9F70E94F3100C94A5160C940000FC0191
:1002100080919102882311F13FB7F89482E0809396
:10022000E9002091F200822F90E01816190614F4CC
:1002300081E090E0882339F0289844E640939002CA
:100240004091F1004083222339F02091F2002111E6
:1002500003C02BE62093E8003FBF08958FEF9FEF88
:1002600008952FB7F89483E08093E9009091E80017
:10027000892F807295FF04C09091F20080E4891B61
:100280002FBF08958091880281110DC082E0809374
:10029000840284E080938502109287021092860285
:1002A00081E08093880284E892E00895282F30E06E
:1002B000F901E856FE4F9491F901E758FE4F8491F9
:1002C000265A3E4FF9012491222309F430C0992384
:1002D000E9F091509F30D0F4E92FF0E0EE58FE4F56
:1002E0000C948516A001A401810198019C0186014E
:1002F00086018601A701AD01B101B501BB018601EF
:10030000BF01909180009F7790938000E22FF0E0F2
:10031000EE0FFF1FE45BFE4FA591B4919FB7F894D9
:10032000EC91611132C080958E238C939FBF08950C
:10033000909180009F7DE8CF90918000977FE4CFDF
:1003400094B59F7794BDE2CF94B59F7DFBCF9091FC
:1003500090009F7790939000D9CF909190009F7DCF
:10036000F9CF90919000977FF5CF9091C0009F7743
:100370009093C000CBCF9091C0009F7DF9CF90911A
:10038000C200977F9093C200C1CF8E2BCECF3FB7D4
:10039000F8948091800290918102A0918202B091A4
:1003A000830226B5A89B05C02F3F19F00196A11D19
:1003B000B11D3FBFBA2FA92F982F8827BC01CD01AF
:1003C000620F711D811D911D42E0660F771F881F0E
:1003D000991F4A95D1F708958F929F92AF92BF923D
:1003E000CF92DF92EF92FF924B015C010E94C70116
:1003F0006B017C010E94C7016C197D098E099F0960
:10040000683E734081059105A8F321E0821A9108A6
:10041000A108B10888EEC80E83E0D81EE11CF11CCB
:1004200081149104A104B10429F7FF90EF90DF90AB
:10043000CF90BF90AF909F908F90089508950895AA
:1004400008954091650250916602209163023091B7
:10045000640242175307B4F49091E8009570E1F3F9
:100460009091E80092FD19C08093F100809165029F
:100470009091660201968F739927892B19F48EEF5C
:100480008093E800809165029091660201969093B6
:1004900066028093650281E0089580E00895EF92FE
:1004A000FF920F931F93CF93DF93F82E192FE62E11
:1004B000042F81E0860F880F0E94210283E00E94B2
:1004C0002102CF2DD12FEC0EFD2EF11CCE15DF0514
:1004D000B9F007FF13C0FE0184910E942102182F7A
:1004E00080E00E942102812321968111EFCFDF91CC
:1004F000CF911F910F91FF90EF9008958881EDCFDC
:1005000081E0F5CFDF92EF92FF920F931F93CF938D
:10051000DF93D82E8A01EB017B01E40EF51ECE1588
:10052000DF0559F0D7FE12C0FE0184910E9421021E
:1005300021968111F4CF0FEF1FEFC801DF91CF910A
:100540001F910F91FF90EF90DF9008958881EECF7B
:100550000F931F93CF93DF931F92CDB7DEB782E047
:10056000898342E450E06CEA70E080E80E948202F5
:100570000E944201DC0112960D911C91011511059A
:1005800089F0D801ED91FC910280F381E02DBE014C
:100590006F5F7F4FC801099597FD04C0F801008582
:1005A0001185ECCF89810F90DF91CF911F910F9131
:1005B0000895615030F02091F100FC0120830196F4
:1005C000F8CF289884E68093900208958F929F92A6
:1005D000AF92BF92CF92DF92EF92FF920F931F9351
:1005E000CF93DF936C017B018A01809115018823F1
:1005F00009F45CC080919102882309F457C080916E
:10060000690280FF05C08091E00082608093E00075
:10061000E801B12C8AEFA82E93E0892E2AE3922ECE
:10062000209711F4BB20D9F10E94310181110AC039
:10063000AA94AA20D9F161E070E080E090E00E94E5
:10064000EC01EECF8C171D0611F00CF08C2F9FB72C
:10065000F8948092E9002091E80025FD02C09FBF38
:10066000DFCF282F30E0C21BD30BF701815020F0E1
:1006700041914093F100FACFE20EF31EBB2021F02E
:100680009092E800B12CEBCF8091E80085FDE7CF98
:100690009092E800BB24B394209709F3F3CF5D98C0
:1006A00084E680936802101611063CF081E090E029
:1006B000F6019383828310E000E0C801DF91CF91BF
:1006C0001F910F91FF90EF90DF90CF90BF90AF9070
:1006D0009F908F900895CF93DF931F92CDB7DEB791
:1006E0006983DC01ED91FC910280F381E02D41E012
:1006F00050E0BE016F5F7F4F09950F90DF91CF9162
:10070000089583E08093E9008091F200882319F036
:100710008AE38093E80008950E94310190E00895F3
:10072000CF93DF931F92CDB7DEB7FC01848595850B
:1007300097FD08C02FEF3FEF358724870F90DF919B
:10074000CF910895CE0101960E940701019719F4F7
:10075000898190E0F3CF8FEF9FEFF0CF0F931F933E
:10076000CF93DF931F92CDB7DEB78C01FC01848558
:10077000958597FF0BC0CE0101960E940701019756
:1007800071F4898190E0F80195878487F801848568
:1007900095850F90DF91CF911F910F9108958FEF65
:1007A0009FEFF1CFFC018485958597FD0BC09FB726
:1007B000F89482E08093E9008091F2009FBF90E07E
:1007C000019608959FB7F89482E08093E9008091A4
:1007D000F2009FBF90E0089580916002E091610275
:1007E000F0916202882339F084919FEB980F9A313F
:1007F00020F4805E08958081F8CF803269F42091E2
:10080000610230916202A9014F5F5F4F5093620213
:1008100040936102232B01F708951F93CF93DF9339
:100820000E94EC03D0E0C0E01AE090ED980F9A30FF
:10083000B8F41C9F90011D9F300D1124E901C80FD1
:10084000D11D87FDDA95E097809161029091620257
:10085000019690936202809361020E94EC03E5CFBF
:10086000CE01DF91CF911F9108953F924F925F92F9
:100870006F927F928F929F92AF92BF92CF92DF92B0
:10088000EF92FF920F931F93CF93DF937B01D42EB0
:1008900020915D0221111BC021E020935D02109286
:1008A00072001092C00034E03093C10039E0309300
:1008B000C2002093C30023E02093BF0028EE2093C2
:1008C000D1001092BF001092D200579A78941092E3
:1008D0000901CC24C39497FF03C09F77AAE0CA2ED6
:1008E000C8E2CC9EC02D1124D0E08C179D0750F09B
:1008F00021E0EC01C21206C0C13187E2D80710F036
:10090000C0E1D7E24E01B12CA12C4C2C512C712C02
:10091000612C9E01AFEFB7E00E948B16640D751D30
:10092000861D971D9695879577956795A3019201EA
:100930000E94441660E072E18AE790E0312C339423
:10094000621773078407950728F096958795779522
:100950006795F5CFA30192010E9414169E0136956A
:100960002795620F731F811D911DA50194010E949F
:100970004416722E022F132F2AE0C21207C0CE0196
:1009800005966AE070E00E943016EB01C83E83E0F5
:10099000D80759F09701DE010E948B1628EE33E04C
:1009A00040E050E00E94661679011092720080913A
:1009B000C100807F83298093C1001093BF00709293
:1009C000D1004D2D403108F04FE080E190E0841BD4
:1009D000910902C0169507958A95E2F71093BF001A
:1009E0000093D200F0925F02E0925E0289B38FEF33
:1009F00089BB84E080937200DF91CF911F910F91AA
:100A0000FF90EF90DF90CF90BF90AF909F908F902E
:100A10007F906F905F904F903F90089520913202A9
:100A2000260F3327331F21323105ECF42091EE02DB
:100A3000FC0190E080E0243069F082E00895A0910C
:100A400032022191AC014E5E5D4FA40FB52FB11D56
:100A50002C930196861798F380913202680F609369
:100A6000320280E0089581E008951092EE0281E064
:100A70008093ED021092C80261E082E00E9456016C
:100A800061E083E00E945601E9EBF0E080818E7F17
:100A9000808380818D7F808388E48093B80085E4A3
:100AA0008093BC000895CF93DF9391E0909311025F
:100AB0008823B9F0C091B800D091BA008091BC00F1
:100AC0008A7B8093BC0060E082E00E94560160E077
:100AD00083E00E9456010E943505D093BA00C0936E
:100AE000B800DF91CF9108958F929F92AF92BF92FD
:100AF000CF92DF92EF92FF920F931F93CF93DF93EA
:100B0000D0911703D13208F0D7C0182FC091160327
:100B10000E94C7016B017C018091EE0281116BC0C4
:100B200082E08093EE021093ED028FEF8093EC024F
:100B30001092EB02D093EA02A6EFB2E0EAECF2E008
:100B400080E0D81391C01092C9028091C902CC0FE5
:100B5000C82BC093C9028091C802813009F088C0B7
:100B60001092C8020E94C7016B017C018091C902EA
:100B70008093BB008091F0029091F102A091F2026B
:100B8000B091F302892B8A2B8B2BA1F00E94C70115
:100B90000091F0021091F1022091F2023091F302E3
:100BA0006C197D098E099F09061717072807390751
:100BB00008F442C08091BC0083FDD8CF85EC8093BF
:100BC000BC000E94C7016B017C018091EE02823063
:100BD00009F450C08091EC028F3F09F46FC08091FE
:100BE000EC02803209F46CC08091EC02803309F48D
:100BF00069C084E026C08091F0029091F102A0913A
:100C0000F202B091F302892B8A2B8B2B09F484CF4B
:100C10000E94C7018090F0029090F102A090F20231
:100C2000B090F3026C197D098E099F09861697060C
:100C3000A806B90608F070CF8091EF020E94530514
:100C400085E01092F502109217031092F402DF91E2
:100C5000CF911F910F91FF90EF90DF90CF90BF90B9
:100C6000AF909F908F9008959D9191938F5F69CFE2
:100C700085EEA5CF8091F0029091F102A091F20251
:100C8000B091F302892B8A2B8B2B09F49ECF0E9403
:100C9000C7010091F0021091F1022091F20230910F
:100CA000F3026C197D098E099F090617170728079B
:100CB000390708F08ACFC0CF81E0C3CF80E0C1CF31
:100CC00082E0BFCF83E0BDCFCF92DF92EF92FF9261
:100CD0000F931F93CF93DF93D82FC62F613208F065
:100CE00098C00E94C7016B017C018091EE028111C6
:100CF0006BC081E08093EE028093ED029FEF9093B2
:100D0000EC021092EB029C0F9093EA028093C902CE
:100D10008091C902DD0FD82BD093C9028091C802FF
:100D2000813009F078C01092C8020E94C7016B019F
:100D30007C018091C9028093BB008091F002909168
:100D4000F102A091F202B091F302892B8A2B8B2B36
:100D5000A1F00E94C7010091F0021091F1022091D0
:100D6000F2023091F3026C197D098E099F09061772
:100D700017072807390708F448C08091BC0083FD95
:100D8000D8CF85EC8093BC000E94C7016B017C0129
:100D90008091EE02813009F440C08091EB028C1703
:100DA00010F4C091EB02EAECF2E0A4E9B2E080E0DA
:100DB0008C1355C08C2FDF91CF911F910F91FF9015
:100DC000EF90DF90CF9008958091F0029091F10222
:100DD000A091F202B091F302892B8A2B8B2B09F49C
:100DE00084CF0E94C7010091F0021091F10220917E
:100DF000F2023091F3026C197D098E099F090617E2
:100E000017072807390708F070CF8091EF020E947A
:100E10005305C0E0CFCF85EEB5CF8091F002909121
:100E2000F102A091F202B091F302892B8A2B8B2B55
:100E300009F4AECF0E94C7010091F0021091F102B7
:100E40002091F2023091F3026C197D098E099F09FD
:100E5000061717072807390708F09ACFD6CF9191C0
:100E60009D938F5FA5CF0895E091930280919202A8
:100E7000E81730F4F0E0EC56FD4F808190E00895E3
:100E80008FEF9FEF089590919302809192022FEF40
:100E90003FEF981748F4E92FF0E0EC56FD4F208122
:100EA00030E09F5F90939302C90108958091920270
:100EB00090919302891B990B0895CF92DF92EF9244
:100EC000FF920F931F93CF93DF937C01CB018A0195
:100ED0002091F402222389F0EB016B01C40ED51E90
:100EE000CC15DD0569F06991D701ED91FC91019078
:100EF000F081E02DC7010995F3CF642F0E940E0504
:100F0000C801DF91CF911F910F91FF90EF90DF907B
:100F1000CF900895CF93DF931F92CDB7DEB769834B
:100F20002091F4022223F9F020911703203258F087
:100F300021E030E0FC013383228390E080E00F90D9
:100F4000DF91CF9108958091F502E82FF0E0EA500B
:100F5000FD4F998190838F5F8093F50280931703F3
:100F600081E090E0ECCF61E0CE0101960E940E0599
:100F7000F7CFCF93C42F91E09093F40280931603A0
:100F80001092F5021092170388E693E00E948A07F8
:100F90006C2F88E693E00E948A0781E00E94740526
:100FA0008093C602CF91089590E080E00895FC01FF
:100FB00001900020E9F73197AF01481B590BBC01A4
:100FC00088E193E00C94E6028F929F92AF92BF92D9
:100FD0000F931F93CF93DF93CDB7DEB7A1970FB6D3
:100FE000F894DEBF0FBECDBF19A2423008F44AE02C
:100FF0008E010F5D1F4F842E912CB12CA12CA501C9
:1010000094010E944416E62FB901CA01EA30F4F4B3
:10101000E05DD801EE938D01232B242B252B79F74E
:1010200090E080E0109719F0CD010E94D707A196BB
:101030000FB6F894DEBF0FBECDBFDF91CF911F91E9
:101040000F91BF90AF909F908F900895E95CE1CF92
:10105000DF92EF92FF920F931F93CF93DF93182F9E
:10106000EA0181E08093F402109316031092F502D6
:101070001092170388E693E00E948A0781E00E949D
:1010800074058093C60281110DC066E0812F0E9415
:1010900064061092930280939202863059F082E3A4
:1010A0008093C602DF91CF911F910F91FF90EF9037
:1010B000DF90089588E693E00E944307E82E88E6D3
:1010C00093E00E944307D82E88E693E00E944307EE
:1010D000082F88E693E00E944307F82E88E693E005
:1010E0000E944307182F88E693E00E94430720E000
:1010F0003D2D2E293983288320E03F2D202B3B8353
:101100002A8320E0382F212B3D832C83CBCFCF9314
:10111000C82F81E08093F402C09316031092F50269
:10112000109217036FE088E693E00E948A0781E03F
:101130000E94740581110FC061E08C2F0E9464062B
:101140001092930280939202813029F488E693E012
:10115000CF910C9443078FEF9FEFCF9108954F925B
:101160005F926F927F928F929F92AF92BF92CF9237
:10117000DF92EF92FF920F931F93CF936B017C014D
:10118000742EAC019B010E94FA15882399F083E626
:1011900091E0CF911F910F91FF90EF90DF90CF9052
:1011A000BF90AF909F908F907F906F905F904F9087
:1011B0000C94D70746015701E894B7F82FEF3FEF9B
:1011C0004FE75FE7C501B4010E94FA1581110DC018
:1011D0002FEF3FEF4FE75FE7C501B4010E94EA132D
:1011E00018161CF487E691E0D4CF2FEF3FEF4FE7BE
:1011F0005FE4C701B6010E94421518161CF48BE685
:1012000091E0C7CF2FEF3FEF4FE75FECC701B6018B
:101210000E94EA1387FDF3CF20E030E0A901C70167
:10122000B6010E94EA1310E000E087FF0AC06DE2F9
:1012300088E193E00E946B038C01F7FAF094F7F8D1
:10124000F094C0E060E070E080E09FE37C1641F045
:1012500020E030E040E251E40E94EF13CF5FF6CF90
:10126000A70196010E947E132B013C010E9461148C
:101270004B015C014AE00E94E4077C01E00EF11E94
:10128000CC23C1F1C501B4010E9490149B01AC01B3
:10129000C301B2010E947D134B015C016EE288E143
:1012A00093E00E946B03E80EF91EC15018F120E094
:1012B00030E040E251E4C501B4010E9447152B0122
:1012C0003C010E9461144B01B12CA12C4AE0C501E4
:1012D000B4010E94E407E80EF91EC501B4010E94A2
:1012E00090149B01AC01C301B2010E947D134B011C
:1012F0005C01DBCFC701CF911F910F91FF90EF9061
:10130000DF90CF90BF90AF909F908F907F906F9025
:101310005F904F90089585ED8093BC008091F0021E
:101320009091F102A091F202B091F3020796A11DF3
:10133000B11D23E0B695A795979587952A95D1F786
:101340002091BC0024FD03C01092EE02089540914C
:10135000F0025091F1026091F2027091F302452B7C
:10136000462B472B69F30097A105B10541F02AE20E
:101370002A95F1F700C00197A109B109E1CF809149
:10138000EF020C9453051F920F920FB60F92112487
:101390002F933F938F939F93AF93BF9380917C0242
:1013A00090917D02A0917E02B0917F0230917B02EC
:1013B00023E0230F2D3758F50196A11DB11D209371
:1013C0007B0280937C0290937D02A0937E02B09377
:1013D0007F028091800290918102A0918202B0915F
:1013E00083020196A11DB11D80938002909381021A
:1013F000A0938202B0938302BF91AF919F918F918E
:101400003F912F910F900FBE0F901F90189526E8D7
:10141000230F0296A11DB11DD2CF1F920F920FB6BE
:101420000F9211242F933F934F935F936F937F936A
:101430008F939F93AF93BF93EF93FF93E0911E0120
:10144000F0911F010995FF91EF91BF91AF919F918D
:101450008F917F916F915F914F913F912F910F905D
:101460000FBE0F901F9018951F920F920FB60F92FC
:1014700011242F933F934F935F936F937F938F9399
:101480009F93AF93BF93EF93FF93E0911C01F09173
:101490001D010995FF91EF91BF91AF919F918F91A0
:1014A0007F916F915F914F913F912F910F900FBE60
:1014B0000F901F9018951F920F920FB60F92112444
:1014C0002F933F934F935F936F937F938F939F934C
:1014D000AF93BF93EF93FF93E0911A01F0911B013B
:1014E0000995FF91EF91BF91AF919F918F917F915E
:1014F0006F915F914F913F912F910F900FBE0F9081
:101500001F9018951F920F920FB60F9211242F93D0
:101510003F934F935F936F937F938F939F93AF937B
:10152000BF93EF93FF93E0911801F0911901099592
:10153000FF91EF91BF91AF919F918F917F916F91AB
:101540005F914F913F912F910F900FBE0F901F9081
:1015500018951F920F920FB60F9211242F933F935D
:101560004F935F936F937F938F939F93AF93BF93AB
:10157000EF93FF93E0911601F09117010995FF9108
:10158000EF91BF91AF919F918F917F916F915F91FB
:101590004F913F912F910F900FBE0F901F90189574
:1015A0001F920F920FB60F9211248F939F938091E9
:1015B000E1009091E100937F9093E10083FF0FC0E1
:1015C0001092E90091E09093EB001092EC0092E30E
:1015D0009093ED001092910298E09093F00082FFBA
:1015E00022C093E09093E9009091F200992319F0C2
:1015F0009AE39093E80090916802992341F09091CA
:101600006802915090936802911101C05D9A909187
:101610009002992341F09091900291509093900202
:10162000911101C0289A84FF18C08091E2008E7E3B
:1016300081608093E2008091E1008F7E8093E100E1
:10164000809169028E7E8061809369029F918F9163
:101650000F900FBE0F901F90189580FFF7CF8091CD
:10166000E2008E7E80618093E2008091E1008E7EB8
:101670008093E100809169028E7E8160E5CF1F92A8
:101680000F920FB60F921124CF92DF92EF92FF923A
:101690000F931F932F933F934F935F936F937F937A
:1016A0008F939F93AF93BF93EF93FF93CF93DF936A
:1016B000CDB7DEB76C97DEBFCDBF1092E900809149
:1016C000E80083FF25C068E0CE0145960E94D9025C
:1016D00082EF8093E8008D8987FF39C09091E80000
:1016E00090FFFCCF982F907609F034C19E894F89E6
:1016F000588D2F89F88C911131C0803861F5809117
:101700006A028093F1001092F1008EEF8093E8005E
:101710006C960FB6F894DEBF0FBECDBFDF91CF91B0
:10172000FF91EF91BF91AF919F918F917F916F91B9
:101730005F914F913F912F911F910F91FF90EF90EB
:10174000DF90CF900F900FBE0F901F9018959EEFD7
:101750009093E800C7CF1092F100D5CF913059F4A3
:101760008111D3CF4130510581F680916A028D7F7E
:1017700080936A02CACF933049F48111C6CF4130B9
:10178000510519F680916A028260F2CF953041F4DA
:101790008091E80080FFFCCF20682093E300B5CF64
:1017A000963009F0A9C00B8D1C8D22E01092E90043
:1017B0001092660210926502F2122EC0109264021C
:1017C000109263020E94A8021F8299E09983FA8214
:1017D00091E09E8390EA98879AEF9987209165021D
:1017E00030916602275F3F4F3C832B838D8310929D
:1017F000E900109266021092650210936402009351
:10180000630249E050E0BE016F5F7F4F80E00E94BD
:1018100082020E94A80279CF1093640200936302AF
:101820000E944201DC0112960D911C9101151105D7
:1018300009F451C1D801ED91FC910480F581E02DAE
:10184000BE016B5E7F4FC8010995009709F03EC14C
:10185000F80100851185EACFF3E0FF120EC08F89F1
:10186000882309F440C0823061F440E862E187E1F6
:1018700091E00E944F02811148CF81E28093EB00FA
:1018800047CF813029F440E862E184E091E0F1CF74
:10189000833099F70E944201DC011296ED90FC9092
:1018A0008E010F5F1F4F6801E114F10479F0D70139
:1018B000ED91FC910680F781E02DB801C7010995F3
:1018C000080F111DF701E084F184EECFD8011C92BE
:1018D000F60101900020E9F73197BF016C197D09ED
:1018E00040E0C601C6CF6EEE70E0FB01449150E0CF
:1018F00080E80E94820209CF973009F4BECF983069
:1019000021F481E08093F10000CF993009F0FDCE01
:10191000837009F0B2CFE9E3F1E081E031E096E3D2
:101920002191222371F08093E9003093EB00DF01D5
:1019300011972C912093EC009093ED008F5F8730EE
:1019400079F78EE78093EA001092EA008F898093FE
:101950009102DBCE8B8D9C8D1092E9001092660275
:10196000109265029093640280936302898D8111C5
:1019700092C08E899D89913A49F4813209F07DCFD8
:1019800047E050E06EE071E080E0B3CF913209F0C3
:1019900074CF833269F48F89988DB0E0A0E0809392
:1019A0000A0190930B01A0930C01B0930D01ADCEF1
:1019B000803269F48091E80082FFFCCF67E08EE01E
:1019C00091E00E94D9028BEF8093E8009ECE823294
:1019D00009F09BCE8F8980931501EEEFFFE785918B
:1019E00094918B3F9C4D51F1E0E0F8E080910E0125
:1019F00090910F01A0911001B0911101803B944092
:101A0000A105B105F1F48091150180FD1AC0EE3FEA
:101A10008AE0F80789F587E797E7918380838091CB
:101A200060008093670288E19BE00FB6F894A89568
:101A3000809360000FBE9093600067CEEEEFFAE0F7
:101A4000D5CF808191818737974709F05ECEA895E1
:101A5000809160008861809360008091670280932C
:101A60006000EE3F2AE0F20789F08091FE0A909133
:101A7000FF0A9183808349CE8081918187379807BF
:101A800051F29093FF0A8093FE0AC5CF1092FF0A8D
:101A90001092FE0A3ACE0E944201DC0112960D918C
:101AA0001C910115110509F4E8CED801ED91FC91C6
:101AB0000190F081E02DBE016B5E7F4FC80109955A
:101AC000811123CEF80100851185EBCF1816190678
:101AD0000CF41BCED2CEF1E0FF12BECE62EF70E06E
:101AE00004CF1F920F920FB60F9211244F925F9264
:101AF0006F927F928F929F92AF92BF92CF92DF921E
:101B0000EF92FF920F931F932F933F934F935F9307
:101B10006F937F938F939F93AF93BF93CF93DF93F5
:101B2000EF93FF93C0915E02D0915F02CE010197C7
:101B300090935F0280935E022097A1F5109272004D
:101B400078948091C100807F84608093C10083E09D
:101B50008093BF0088EE8093D1001092BF00109256
:101B6000D20081E08093090180916102909162022C
:101B7000892BC1F080915C02811114C07090080122
:101B800080915B02882379F180915A02882359F170
:101B900060915A0270E040E088EE93E00E943504C4
:101BA00010925A02FF91EF91DF91CF91BF91AF91C7
:101BB0009F918F917F916F915F914F913F912F9165
:101BC0001F910F91FF90EF90DF90CF90BF90AF905B
:101BD0009F908F907F906F905F904F900F900FBE6F
:101BE0000F901F9018955524539470ECA72E7DE507
:101BF000B72EEAE04E2EF4E06F2EA0EDCA2EA7E03D
:101C0000DA2EB4E0EB2EF12C04EF11E08FE0882EF9
:101C1000912C0E94EC0320916102309162022F5FAF
:101C20003F4F3093620220936102853609F473C0FE
:101C30000CF047C0813609F4B4C024F58C3309F4A4
:101C400068C08E3309F463C0813209F043C06092EA
:101C50000801D0920501C0920401F0920701E092C0
:101C600006011093030100930201909201018092FA
:101C7000000110925B027090080180910201909126
:101C80000301C7CF833609F48FC010E00BE0843620
:101C900014F010E002E04CE0749E000D11240E944C
:101CA000EC03982F977F933209F080C080916102F6
:101CB00090916202019690936202809361020F5F9D
:101CC000EECF8D3609F445C054F4873651F134F126
:101CD0008C3651F1109262021092610263CF82370A
:101CE00009F44CC044F48F36A9F70E940D04782EF5
:101CF000809308018ECF843709F443C0863751F7AB
:101D00000E940D04909301018093000182CF73948F
:101D100080CF7A947ECF10E004E0BDCF10E005E0E4
:101D2000BACF10E007E0B7CF0E940D0490930701EF
:101D30008093060180910401909105016091060154
:101D4000709107010E9430167093030160930201A5
:101D500060CF0E94EC038C3661F410925B0280919C
:101D600061029091620201969093620280936102F7
:101D700050CF50925B0210925A02F1CF11E000E076
:101D80008ACF0E940D04BC01C5010E943016469EF8
:101D9000C001479E900D112490930501809304018A
:101DA000C9CF10E009E077CF10E0E9CF8D3269F4B8
:101DB00080916102909162020196909362028093F9
:101DC000610201500E94EC03F1CFE0900201F0901B
:101DD00003018153883058F4E0900401F09005012C
:101DE0000E940D04BC01C7010E9430167B016701EF
:101DF000D694C7940E94EC038E3261F48091610204
:101E00009091620201969093620280936102EC0CC1
:101E1000FD1CEECF80915B02882349F0C7019695A7
:101E2000879580935A0280915A02E81AF108C0906F
:101E30000001D0900101111104C00F3F11F0C11039
:101E400007C040E0B70188EE93E00E943504AACEB7
:101E5000013128F010EF100F103608F01FE5812F28
:101E60006CE00E942416582F44EF45039001112482
:101E7000210F311D2C30310538F4220F331FF901A9
:101E8000E05EFE4FC081D1818730C1F0082E02C0D4
:101E9000CC0FDD1F0A94E2F7823040F0CE010596A8
:101EA0006AE070E00E943016CB0102C0CE0190586B
:101EB0004C2D403108F04FE0B701C7CFCE0126E0EE
:101EC000880F991F2A95E1F7029665E070E0EACF46
:101ED0001F920F920FB60F9211242F933F934F939F
:101EE0006F937F938F939F938CB1282F30E035951C
:101EF000279535952795422F417083B190E064E096
:101F0000959587956A95E1F782278170209159020E
:101F10009091580260915602709157022827942799
:101F2000291B330B260F371F30935702209356027D
:101F30002091580290915902281729F0941719F00E
:101F400091E09093550280935802409359029F91DB
:101F50008F917F916F914F913F912F910F900FBE75
:101F60000F901F9018951F920F920FB60F92112489
:101F70002F933F934F935F936F937F938F939F9391
:101F8000AF93BF93EF93FF938091B900887F803622
:101F900009F44AC0F0F5883209F4A7C018F5803179
:101FA00009F49BC0B8F4882309F4F9C0883009F417
:101FB00094C0FF91EF91BF91AF919F918F917F91CD
:101FC0006F915F914F913F912F910F900FBE0F90A6
:101FD0001F901895883109F488C0803251F780939A
:101FE000EC0214C0803409F49DC040F48033B9F38E
:101FF0008833F9F68093EC0285ECB0C0803509F4A3
:1020000085C0883509F496C0883499F60E948B09FA
:10201000D0CF883909F48CC038F5883729F050F4CE
:10202000883611F0803729F683E08093EE02109213
:10203000540257C0883809F47BC0803919F08038C1
:1020400009F0B7CF80915402803208F071C0E0915E
:10205000540281E08E0F809354028091BB00F0E027
:10206000EC5CFD4F80833DC0803B39F0E0F4803A6A
:1020700009F479C0883A09F09CCF84E08093EE029D
:102080001092330210923202E0916D02F0916E02D2
:1020900009958091320281110FC081E08093320254
:1020A0001092120209C0803C09F4A6CF883C09F4C2
:1020B000A3CF883B09F07DCFE091330281E08E0F02
:1020C00080933302F0E0EE5EFD4F80818093BB0091
:1020D000909133028091320229C08091C90280938D
:1020E000BB0085EC8093BC0064CF9091EB028091A3
:1020F000EA02981758F5E091EB0281E08E0F809389
:10210000EB02F0E0E653FD4F8081E9CFE091EB0276
:1021100081E08E0F8093EB028091BB00F0E0E653EC
:10212000FD4F80839091EB028091EA029817C8F2EC
:1021300085E8D8CFE091EB0281E08E0F8093EB022F
:102140008091BB00F0E0E653FD4F80838091ED026B
:1021500081115CCF81E08093C80284EA8093BC0047
:102160001092EE0226CF85EC8093BC001092EE0216
:1021700080915402803230F4E0915402F0E0EC5C43
:10218000FD4F10826091540270E0E0916B02F0917B
:102190006C0284E392E00995109254020ACF1092E7
:1021A000EC0234CFE8E1F3E01382128288EE93E090
:1021B000A0E0B0E084839583A683B78323E431E075
:1021C000318320832FEF3FEF35872487E8E6F3E064
:1021D0001382128284839583A683B78385E591E079
:1021E000918380830895789484B5826084BD84B59A
:1021F000816084BD85B5826085BD85B5816085BD02
:1022000080916E00816080936E00109281008091B9
:102210008100826080938100809181008160809341
:102220008100809180008160809380008091910086
:1022300082608093910080919100816080939100F1
:10224000809190008160809390008091C1008460B3
:102250008093C1008091C10082608093C100809111
:10226000C10081608093C1008091C3008160809330
:10227000C3008091C00082608093C0008091C20042
:1022800081608093C20080917A00846080937A009C
:1022900080917A00826080937A0080917A008160D8
:1022A00080937A0080917A00806880937A001092FF
:1022B000910210926A02109269028091D7008160A7
:1022C0008093D70080EA8093D80089B5806189BD6A
:1022D00089B5826089BD09B400FEFDCF61E070E080
:1022E00080E090E00E94EC018091D8008F7C8061BA
:1022F0008093D8008091E000807F8093E0008091FF
:10230000E1008E7E8093E1008DE08093E200559A9B
:10231000209A10929302109292021092F50210925B
:1023200017030E9435058EE192E090936E02809330
:102330006D028FE192E090936C0280936B028FEFBD
:102340009FEF90932503809324038DE10E948708DB
:102350008934910509F003C18BE60E948708873D07
:10236000910509F0FCC081E08093C7028091C7020B
:10237000813009F41BC1823009F454C1C0E0D0E0BF
:102380008091C702813009F487C1823009F48BC182
:102390008091C602811114C08091C702813009F476
:1023A00087C1823009F48BC18091C602811108C0B7
:1023B0008091C702813009F486C1823009F48AC154
:1023C0006091B4027091B502072E000C880B990B36
:1023D0000E94921423E23BED49E75DE30E9447151A
:1023E00020E030E04AE754E40E94EF134B015C0127
:1023F0006091B6027091B702072E000C880B990B02
:102400000E94921423E23BED49E75DE30E944715E9
:1024100020E030E04AE754E40E94EF136B017C01B6
:10242000A5019401C501B4010E9447152B013C018F
:10243000A7019601C701B6010E9447159B01AC0197
:10244000C301B2010E947E130E94BA152B013C0108
:102450002CE53FE84EE051E4C501B4010E94471568
:1024600060936F0270937002809371029093720276
:102470002CE53FE84EE051E4C701B6010E94471544
:102480006093730270937402809375029093760246
:102490002CE53FE84EE051E4C301B2010E9447152C
:1024A00060937702709378028093790290937A0216
:1024B00082E791E00E94D70760916F0270917002ED
:1024C000809171029091720244E00E94AF0880E80E
:1024D00091E00E94D707609173027091740280911D
:1024E00075029091760244E00E94AF0880E991E085
:1024F0000E94D707609177027091780280917902EB
:1025000090917A0244E00E94AF088FE691E00E9429
:10251000D707C0906F02D0907002E0907102F090E7
:10252000720220E030E040E050ECC701B6010E94AA
:10253000EA1387FFD4C083EA91E00E94D7078FE6B1
:1025400091E00E94D70764EF71E080E090E00E9484
:10255000EC01209709F414CF0E94000011CF8BE604
:102560000E9487088936910539F48EE10E94870818
:10257000CD9711F482E0F8CE2898209ACAE2D1E0F3
:10258000FE016491662339F088E193E00E946B03B9
:102590002196892BA9F78FE691E00E94D70764E680
:1025A00070E080E090E00E94EC01E8CF47E560E257
:1025B0008DE10E94B9078091C6028111DFCE40E013
:1025C00061E28DE10E94B9078091C6028111D6CEE9
:1025D00044E664E28DE10E94B9078091C602811150
:1025E000CDCE40E265E28DE10E94B9078091C6023E
:1025F0008111C4CE40E066E28DE10E94B90780916E
:10260000C6028111BBCE4FE760E28BE60E94B9079C
:102610008091C6028111B2CE40E063E28BE60E9457
:10262000B907ACCE40E360E18BE60E94B907809128
:10263000C6028111A3CE40E561E18BE60E94B90795
:102640008091C60281119ACE44E062E18BE60E943D
:10265000B9078091C602811191CE40E760E28EE118
:102660000E94B9078091C602811188CE40E061E2E4
:102670008EE10E94B9078091C60281117FCE40E0B1
:1026800062E28EE10E94B9078091C602811176CE86
:102690004CE063E28EE1C3CF44EB52E068EA8DE1A7
:1026A0000E94280875CE44EB52E068E28BE6F8CF32
:1026B0004AEB52E068EA8BE60E94280875CE4AEBA6
:1026C00052E062E2F8CF40EC52E068E88DE10E940F
:1026D000280876CE40EC52E068EA8EE1F8CF20E0A0
:1026E00030E040E050E4C701B6010E9442151816E0
:1026F0000CF029CF85ED91E020CF5058BB27AA27B9
:102700000E9495130C9408150E94FA1438F00E9448
:10271000011520F039F49F3F19F426F40C94F714B6
:102720000EF4E095E7FB0C94F114E92F0E941915C3
:1027300058F3BA17620773078407950720F079F4F6
:10274000A6F50C943B150EF4E0950B2EBA2FA02D98
:102750000B01B90190010C01CA01A0011124FF274E
:10276000591B99F0593F50F4503E68F11A16F04049
:10277000A22F232F342F4427585FF3CF4695379548
:102780002795A795F0405395C9F77EF41F16BA0B0D
:10279000620B730B840BBAF09150A1F0FF0FBB1FBB
:1027A000661F771F881FC2F70EC0BA0F621F731F04
:1027B000841F48F4879577956795B795F7959E3F61
:1027C00008F0B0CF9395880F08F09927EE0F9795F2
:1027D000879508950E94CD1408F481E008950E9421
:1027E00003140C9408150E94011558F00E94FA1465
:1027F00040F029F45F3F29F00C94F11451110C942E
:102800003C150C94F7140E94191568F39923B1F341
:10281000552391F3951B550BBB27AA276217730706
:10282000840738F09F5F5F4F220F331F441FAA1F9A
:10283000A9F335D00E2E3AF0E0E832D09150504056
:10284000E695001CCAF72BD0FE2F29D0660F771F04
:10285000881FBB1F261737074807AB07B0E809F0EA
:10286000BB0B802DBF01FF2793585F4F3AF09E3F6F
:10287000510578F00C94F1140C943C155F3FE4F38F
:10288000983ED4F3869577956795B795F7959F5FB2
:10289000C9F7880F911D9695879597F90895E1E0FE
:1028A000660F771F881FBB1F621773078407BA075D
:1028B00020F0621B730B840BBA0BEE1F88F7E095B8
:1028C00008950E94211588F09F5798F0B92F9927F5
:1028D000B751B0F0E1F0660F771F881F991F1AF00B
:1028E000BA95C9F714C0B13091F00E943B15B1E020
:1028F00008950C943B15672F782F8827B85F39F01F
:10290000B93FCCF3869577956795B395D9F73EF4A3
:1029100090958095709561957F4F8F4F9F4F08954B
:10292000E89409C097FB3EF4909580957095619569
:102930007F4F8F4F9F4F9923A9F0F92F96E9BB271F
:102940009395F695879577956795B795F111F8CF9B
:10295000FAF4BB0F11F460FF1BC06F5F7F4F8F4F06
:102960009F4F16C0882311F096E911C0772321F0FC
:102970009EE8872F762F05C0662371F096E8862F94
:1029800070E060E02AF09A95660F771F881FDAF7EB
:10299000880F9695879597F90895990F0008550F18
:1029A000AA0BE0E8FEEF16161706E807F907C0F0D5
:1029B00012161306E407F50798F0621B730B840BDD
:1029C000950B39F40A2661F0232B242B252B21F4B7
:1029D00008950A2609F4A140A6958FEF811D811D57
:1029E000089597F99F6780E870E060E008959FEF91
:1029F00080EC089500240A94161617061806090696
:102A0000089500240A941216130614060506089564
:102A1000092E0394000C11F4882352F0BB0F40F4EC
:102A2000BF2B11F460FF04C06F5F7F4F8F4F9F4F2C
:102A3000089557FD9058440F551F59F05F3F71F0AE
:102A40004795880F97FB991F61F09F3F79F0879515
:102A50000895121613061406551FF2CF4695F1DF9E
:102A600008C0161617061806991FF1CF869571052E
:102A7000610508940895E894BB2766277727CB0162
:102A800097F908950E94CD1408F48FEF08950E94DD
:102A90005A150C9408150E94FA1438F00E9401157A
:102AA00020F0952311F00C94F1140C94F7141124D8
:102AB0000C943C150E94191570F3959FC1F3950F66
:102AC00050E0551F629FF001729FBB27F00DB11DB2
:102AD000639FAA27F00DB11DAA1F649F6627B00D42
:102AE000A11D661F829F2227B00DA11D621F739F2B
:102AF000B00DA11D621F839FA00D611D221F749F39
:102B00003327A00D611D231F849F600D211D822F7F
:102B1000762F6A2F11249F5750409AF0F1F08823A6
:102B20004AF0EE0FFF1FBB1F661F771F881F9150D3
:102B30005040A9F79E3F510580F00C94F1140C947D
:102B40003C155F3FE4F3983ED4F3869577956795FF
:102B5000B795F795E7959F5FC1F7FE2B880F911DFD
:102B60009695879597F9089519F416F40C94F7142F
:102B70000C94FF150E942115B8F39923C9F3B6F3FD
:102B80009F57550B87FF0E940D160024A0E640EAD0
:102B9000900180585695979528F4805C660F771FB2
:102BA000881F20F026173707480730F4621B730B85
:102BB000840B202931294A2BA695179407942025A8
:102BC00031254A2758F7660F771F881F20F02617F0
:102BD0003707480730F4620B730B840B200D311D4F
:102BE000411DA09581F7B901842F9158880F9695C2
:102BF000879508950E94CD14880B990B08959F3FE7
:102C000031F0915020F4879577956795B795880FA7
:102C1000911D9695879597F9089591505040660FAC
:102C2000771F881FD2F70895DB018F939F930E942F
:102C30009A16BF91AF91A29F800D911DA39F900DF9
:102C4000B29F900D11240895991B79E004C0991F3B
:102C5000961708F0961B881F7A95C9F780950895F6
:102C6000AA1BBB1B51E107C0AA1FBB1FA617B707B2
:102C700010F0A61BB70B881F991F5A95A9F78095CE
:102C80009095BC01CD010895A1E21A2EAA1BBB1B91
:102C9000FD010DC0AA1FBB1FEE1FFF1FA217B30728
:102CA000E407F50720F0A21BB30BE40BF50B661F3E
:102CB000771F881F991F1A9469F760957095809502
:102CC00090959B01AC01BD01CF010895052E97FBA6
:102CD0001EF400940E947D1657FD07D00E944416F2
:102CE00007FC03D04EF40C947D165095409530951A
:102CF00021953F4F4F4F5F4F089590958095709568
:102D000061957F4F8F4F9F4F0895EE0FFF1F0590E6
:102D1000F491E02D0994A29FB001B39FC001A39F3D
:102D2000700D811D1124911DB29F700D811D112404
:102D3000911D08950E948B16A59F900DB49F900D34
:0E2D4000A49F800D911D11240895F894FFCFDB
:102D4E000F00F401D00704000401FFFFFFFF00E1B4
:102D5E0000000000000020022002200220022002BB
:102D6E009C01B501CF01EA01070226024702690262
:102D7E008E02B502DE020A0300C18081000000004F
:102D8E000000006B03E6028C038103D2039003AEB6
:102D9E0003000000008A075D07D407330756074378
:102DAE000734076E616E00696E66006F7666000D01
:102DBE000A00617820696E206D2F735E323A200012
:102DCE002C20617920696E206D2F735E323A2000BF
:102DDE002C20546F74616C20696E206D2F735E32DF
:102DEE003A2000596F7520617265206272616B69BD
:102DFE006E6720746F20686172642C207472792063
:102E0E00736C6F77696E6720646F776E2065617281
:102E1E006C69657200596F752061726520737065FB
:102E2E006564696E6720746F6F20666173742C2001
:102E3E0074727920616363656C65726174696E6723
:0C2E4E0020736C6F776572203A29000039
:00000001FF
